{
  "contractName": "TODOList",
  "abi": [
    {
      "constant": true,
      "inputs": [],
      "name": "task_count",
      "outputs": [
        {
          "internalType": "uint256",
          "name": "",
          "type": "uint256"
        }
      ],
      "payable": false,
      "stateMutability": "view",
      "type": "function"
    }
  ],
  "bytecode": "0x608060405260008055348015601357600080fd5b506084806100226000396000f3fe6080604052348015600f57600080fd5b506004361060285760003560e01c8063b343525114602d575b600080fd5b60336049565b6040518082815260200191505060405180910390f35b6000548156fea265627a7a7231582041e2f5c1fa1ea262b418b6ad13da134c93695696d3f6976b013f64570d62860a64736f6c63430005100032",
  "source": "pragma solidity ^0.5.16;\r\n\r\ncontract TODOList{\r\n    uint public task_count = 0;\r\n\r\n}",
  "sourcePath": "D:/Desktop/defi test project/contracts/TODOList.sol",
  "compiler": {
    "name": "solc",
    "version": "0.5.16+commit.9c3226ce.Emscripten.clang"
  },
  "schemaVersion": "3.3.4",
  "updatedAt": "2021-04-11T11:07:33.711Z",
  "networkType": "ethereum",
  "devdoc": {
    "methods": {}
  },
  "userdoc": {
    "methods": {}
  }
}